:100000000C942C010C9441010C9441010C9441017D
:100010000C9441010C9441010C9441010C94410158
:100020000C9441010C9441010C9441010C94410148
:100030000C9441010C9441010C9441010C94410138
:100040000C9441010C9441010C9441010C94410128
:100050000C9441010C9441010C9441010C94410118
:100060000C9441010C9441010C9441010C94410108
:100070000C9441010C9441010C94410100000000DA
:100080000000005F00000003000300143E143E1453
:10009000242A7F2A124333086661364955225000CC
:1000A00005030000001C2241000041221C0014082E
:1000B0003E081408083E08080050300000080808F0
:1000C0000808006060000020100804023E51494505
:1000D0003E0004027F0042615149462241494936AF
:1000E0001814127F1027454545393E4949493201C8
:1000F000017109073649494936264949493E0036C2
:100100003600000056360000081422410014141472
:100110001414004122140802015109063E415955A8
:100120005E7E0909097E7F494949363E41414122A7
:100130007F4141413E7F494949417F090909013ECB
:100140004141493A7F0808087F00417F4100304023
:1001500040403F7F081422417F404040407F020CD6
:10016000027F7F0204087F3E4141413E7F09090929
:10017000061E2121215E7F09090976264949493257
:1001800001017F01013F4040403F1F2040201F7F71
:100190002010207F41221C2241070870080761516E
:1001A000494543007F41000002040810200000413F
:1001B0007F0004020102044040404040000102046C
:1001C0000020545454787F444444383844444444D0
:1001D000384444447F385454541804047E050508B8
:1001E0005454543C7F0804047800447D400020406F
:1001F000443D007F1028440000417F40007C04788B
:1002000004787C0804047838444444387C1414147A
:1002100008081414147C007C080404485454542026
:1002200004043F44443C4040207C1C2040201C3CB3
:100230004030403C44281028440C5050503C44640A
:10024000544C44000836414100007F0000414136D3
:10025000080002010204020011241FBECFEFD0E10A
:10026000DEBFCDBF11E0A0E0B1E0ECEDFCE002C0EC
:1002700005900D92A036B107D9F70E9443010C9466
:100280006C060C9400000F931F93DF93CF93CDB7B0
:10029000DEB7E7970FB6F894DEBF0FBECDBF2DB720
:1002A0003EB73FAB2EAB8DB79EB79CA78BA71E86E4
:1002B0001D861C861B861A8619868EE690E0988716
:1002C0008F8382ED90E09E838D8386E490E09C8313
:1002D0008B838AEA90E09A838983AE014F5E5F4FF9
:1002E0005AAB49AB60E071E07CAB6BAB72E17DABCC
:1002F000EBA9FCA900802BA93CA92F5F3F4F3CAB89
:100300002BABE9A9FAA9008229A93AA92F5F3F4F8F
:100310003AAB29AB3DA931503DAB4DA9442341F740
:100320002D813E818F819885A901481B590B298118
:100330003A818B819C81B901681B790BCB01FC014F
:100340004E9FC0014F9F900D5E9F900D1124880F0E
:10035000991F2DB73EB7281B390B0FB6F8943EBF37
:100360000FBE2DBF4DB75EB74F5F5F4F5EA74DA766
:100370008DA59EA500969EA78DA76DA57EA5788BC1
:100380006F877BC089859A85893091057CF11A86B3
:1003900019862D813E818F819885281B390B8B858D
:1003A0009C85F901E89F9001E99F300DF89F300D81
:1003B00011248D859E85B901680F791F89859A85DD
:1003C0009C01220F331FCE010196820F931FFC0167
:1003D0007096408151812F853889CB01880F991FF4
:1003E000F901E80FF91F5183408331C089859A854F
:1003F00001969A8789872D813E818F819885281B58
:10040000390B8B859C85A901489F9001499F300D30
:10041000589F300D11248D859E85B901680F791F75
:1004200089859A859C01220F331FCE010196820F88
:10043000931FFC017096408151812F853889CB0133
:10044000880F991FF901E80FF91F518340838D85AB
:100450009E8501969E878D872D813E818F8198850F
:10046000281B390B8D859E85821793070CF48ACF44
:100470008B859C8501969C878B8729813A818B810E
:100480009C81281B390B8B859C858217930724F34D
:100490000E9412050E94F20381E090E00E9489020E
:1004A0008F8198852D813E814B815C8169817A8124
:1004B0009CA38BA33EA32DA358A74FA37AA769A7FC
:1004C0002BA13CA14DA15EA16FA178A589A59AA5FC
:1004D00000EE1FEF0E940D0382E191E00E94FF04F5
:1004E0006BA57CA50FB6F8947EBF0FBE6DBFEEA9BD
:1004F000FFA90FB6F894FEBF0FBEEDBFE7960FB68B
:10050000F894DEBF0FBECDBFCF91DF911F910F9149
:1005100008959C0190932301809322012C9886E3F7
:100520008BB92B982B9A2C9A2115310571F480EFF9
:1005300090E090931F0180931E0180E491E09093DE
:1005400021018093200188E432C02130310571F40B
:1005500080E491E090931F0180931E0180EF90E072
:10056000909321018093200188EE21C02230310533
:1005700071F480EF90E090931F0180931E0180E45E
:1005800091E0909321018093200188E810C02330EE
:10059000310581F480E491E090931F0180931E0166
:1005A00080EF90E0909321018093200188E28BB945
:1005B0002B982B9A2C988AE28BB92B982B9A2C9AF1
:1005C0001BB82B982B9A1BB82B982B9A80911E0145
:1005D00090911F0101979BB901962B982B9A8150FE
:1005E0008BB92B982B9A2C988BE28BB92B982B9A42
:1005F0002C9A1BB82B982B9A1BB82B982B9A80916E
:1006000020019091210101979BB901962B982B9A7B
:1006100081508BB92B982B9A0895EF92FF920F93EC
:100620001F93DF93CF93CDB7DEB728970FB6F8941B
:10063000DEBF0FBECDBFF22F2983E32F3A834B835A
:100640005C83362F6D83272F7E838F839887780175
:10065000AB81BC81062F172F6F8178852C988AE299
:100660008BB92B982B9A2C9AEBB92B982B9AFBB918
:100670002B982B9ABBB92B982B9AABB92B982B9A0A
:100680002C988BE28BB92B982B9A2C9A2BB92B9800
:100690002B9A3BB92B982B9A7BB92B982B9A6BB939
:1006A0002B982B9A2C988CE28BB92B982B9A2C9AFE
:1006B0002F2F3E2FC901AC010DC0FBB82B982B9AF0
:1006C000EBB82B982B9A2F5F3F4F62177307A8F751
:1006D0004F5F5F4FA417B50710F09801F6CF28962B
:1006E0000FB6F894DEBF0FBECDBFCF91DF911F9143
:1006F0000F91FF90EF900895EF92FF920F931F9349
:10070000DF93CF93CDB7DEB728970FB6F894DEBF4F
:100710000FBECDBFF22F2983E32F3A834B835C8337
:10072000362F6D83272F7E838F839887D8010B8187
:100730001C81E62EF72E6F8178852C988AE28BB982
:100740002B982B9A2C9AEBB92B982B9AFBB92B98B8
:100750002B9A1BB92B982B9A0BB92B982B9A2C9868
:100760008BE28BB92B982B9A2C9A2BB92B982B9A1E
:100770003BB92B982B9A7BB92B982B9A6BB92B985A
:100780002B9A2C988CE28BB92B982B9A2C9A2F2F82
:100790003E2FC901AC0114C011968C9111978BB9F1
:1007A0002B982B9A12968C9112978BB914962B98A2
:1007B0002B9A2F5F3F4F6217730770F74F5F5F4FA2
:1007C0000417150710F09701F6CF28960FB6F89486
:1007D000DEBF0FBECDBFCF91DF911F910F91FF9074
:1007E000EF9008950F931F93DF93CF93CDB7DEB7AC
:1007F00028970FB6F894DEBF0FBECDBF109225012B
:1008000010922401109227011092260120911E01BE
:1008100030911F01215030408091200190912101A1
:1008200001971A821982422F3C832B831E821D82DC
:1008300098878F8300912A0110912B0129813A8199
:100840005C816D817E8198850E940D0328960FB68C
:10085000F894DEBF0FBECDBFCF91DF911F910F91F6
:1008600008956F927F928F929F92AF92BF92CF9294
:10087000DF92EF92FF920F931F93CF93DF93982F06
:10088000009124011091250124E0E22EF12CE00ECC
:10089000F11E609026017090270180528F3508F07C
:1008A0009FC0E301279685E0989F90011124245270
:1008B00030402C988BE28BB92B982B9A2C9A7BB8D2
:1008C0002B982B9A6BB82B982B9ADBB92B982B9AD9
:1008D000CBB92B982B9AC0902801D0902901A090D9
:1008E0002A01B0902B01A8019AE2892E8CE2982E61
:1008F00036C02C988BB82B982B9A2C9A5BB92B98D6
:100900002B9A4BB92B982B9A5BB92B982B9A4BB9F6
:100910002B982B9A2C989BB82B982B9A2C9AF901F0
:10092000B491B30191E014C0A92FAB2311F48B2D26
:1009300001C08D2D8BB92B982B9AAA2311F48A2DE7
:1009400001C08C2D8BB92B982B9A6F5F7F4F990F1D
:10095000C617D70748F72F5F3F4F4F5F5F4FE4162B
:10096000F50638F62C988AE28BB92B982B9A2C9A9C
:100970005BB92B982B9A4BB92B982B9A5BB92B9878
:100980002B9A4BB92B982B9A2C988CE28BB92B98DD
:100990002B9A2C9AC30107C0BBB82B982B9AABB8E3
:1009A0002B982B9A0196C817D907B0F798012A5FA0
:1009B0003F4F309325012093240180911E01909197
:1009C0001F012817390760F01092250110922401A9
:1009D00088E090E0680E791E7092270160922601EF
:1009E000DF91CF911F910F91FF90EF90DF90CF900B
:1009F000BF90AF909F908F907F906F9008951F93BE
:100A0000CF93DF93EC0110E003C00E9431041F5F1D
:100A1000FE01E10FF11D80818823B9F7DF91CF91AD
:100A20001F91089585B7806885BF85B7806885BFA9
:100A30008FE784B98FEF8AB90E941F0508952A981D
:100A400088EE93E02CE231E0F9013197F1F701975C
:100A5000D9F72A9A88EE93E02CE231E0F901319738
:100A6000F1F70197D9F72C9A2B9A2D9A2898299863
:100A70002E9A2C9888E28BB92B982B9A2C9A2C982A
:100A800081E18BB92B982B9A2C9A88E592E02CE285
:100A900031E0F9013197F1F70197D9F72C988BECF8
:100AA0008BB92B982B9A2C9A81E08BB92B982B9A87
:100AB0002C9880EC8BB92B982B9A2C9A86E28BB9C8
:100AC0002B982B9A88E08BB92B982B9A2C9881EC39
:100AD0008BB92B982B9A2C9A80E18BB92B982B9A57
:100AE0002C9885EC8BB92B982B9A2C9A85E38BB993
:100AF0002B982B9A8EE38BB92B982B9A2C9886E304
:100B00008BB92B982B9A2C9A88E48BB92B982B9A1B
:100B10002C9880EB8BB92B982B9A2C9A8AE48BB962
:100B20002B982B9A2C9881EB8BB92B982B9A2C9A7B
:100B30001BB82B982B9A8BE18BB92B982B9A2C985E
:100B400086EB8BB92B982B9A2C9AEAE5F1E08191F0
:100B50008BB92B982B9A41E0EE35F407C1F72C980E
:100B600087EC8BB92B982B9A2C9A85EB8BB92B9809
:100B70002B9A2C9886EF8BB92B982B9A2C9AE6E51A
:100B8000F1E081918BB92B982B9A81E0E935F80738
:100B9000C1F72C9882EF8BB92B982B9A2C9A1BB803
:100BA0002B982B9A2C9886E28BB92B982B9A2C9AFF
:100BB00081E08BB92B982B9A2C988AE38BB92B98D0
:100BC0002B9A2C9A85E58BB92B982B9A2C9880EE32
:100BD0008BB92B982B9A2C9AE6E4F1E081918BB992
:100BE0002B982B9A41E0E535F407C1F72C9881EE5C
:100BF0008BB92B982B9A2C9AE6E3F1E081918BB973
:100C00002B982B9A81E0E534F807C1F72C988AE2FB
:100C10008BB92B982B9A2C9AE1E3F1E081918BB957
:100C20002B982B9A41E0E533F407C1F72C988BE21F
:100C30008BB92B982B9A2C9AECE2F1E081918BB92D
:100C40002B982B9A81E0E033F807C1F72C9884E3C6
:100C50008BB92B982B9A2C9A2C9884EB8BB92B98C8
:100C60002B9A2C9A1BB82B982B9A2C9887EB8BB924
:100C70002B982B9A2C9A87E08BB92B982B9A2C982F
:100C80008CE28BB92B982B9A2C9A20E030E010C084
:100C90001BB82B982B9A1BB82B982B9A019641E0E6
:100CA00080349407A9F72F5F3F4F203F310519F09B
:100CB00080E090E0EDCF2C9889E28BB92B982B9AAD
:100CC0002C9A84EF91E02CE231E0F9013197F1F7B1
:0C0CD0000197D9F7299A0895F894FFCFF6
:100CDC00FFFF00001F00E007FF0700F81FF8E0FF10
:100CEC001FF848656C6C6F20776F726C6400F000B5
:100CFC004001030000000000FFFF00000000013F66
:100D0C0000000000EF000025270510093A784D057A
:100D1C00180D383A1F001F1A180A0F064587320A99
:100D2C00070207050000010000000A8227000000EE
:00000001FF
