:100000000C942C010C94B8010C944B010C944901F4
:100010000C9449010C9449010C9449010C94490138
:100020000C9449010C9449010C9449010C94490128
:100030000C9449010C9449010C9449010C94490118
:100040000C9449010C9449010C9449010C94490108
:100050000C9449010C9449010C9449010C944901F8
:100060000C9449010C9449010C9449010C944901E8
:100070000C9449010C9449010C94490100000000C2
:100080000000005F00000003000300143E143E1453
:10009000242A7F2A124333086661364955225000CC
:1000A00005030000001C2241000041221C0014082E
:1000B0003E081408083E08080050300000080808F0
:1000C0000808006060000020100804023E51494505
:1000D0003E0004027F0042615149462241494936AF
:1000E0001814127F1027454545393E4949493201C8
:1000F000017109073649494936264949493E0036C2
:100100003600000056360000081422410014141472
:100110001414004122140802015109063E415955A8
:100120005E7E0909097E7F494949363E41414122A7
:100130007F4141413E7F494949417F090909013ECB
:100140004141493A7F0808087F00417F4100304023
:1001500040403F7F081422417F404040407F020CD6
:10016000027F7F0204087F3E4141413E7F09090929
:10017000061E2121215E7F09090976264949493257
:1001800001017F01013F4040403F1F2040201F7F71
:100190002010207F41221C2241070870080761516E
:1001A000494543007F41000002040810200000413F
:1001B0007F0004020102044040404040000102046C
:1001C0000020545454787F444444383844444444D0
:1001D000384444447F385454541804047E050508B8
:1001E0005454543C7F0804047800447D400020406F
:1001F000443D007F1028440000417F40007C04788B
:1002000004787C0804047838444444387C1414147A
:1002100008081414147C007C080404485454542026
:1002200004043F44443C4040207C1C2040201C3CB3
:100230004030403C44281028440C5050503C44640A
:10024000544C44000836414100007F0000414136D3
:10025000080002010204020011241FBECFEFD0E10A
:10026000DEBFCDBF12E0A0E0B1E0E0E5F1E202C008
:1002700005900D92AA33B107D9F712E0AAE3B2E0D4
:1002800001C01D92AC33B107E1F70E9425020C9426
:10029000A6100C9400001F920F920FB60F9211241B
:1002A0000F931F932F933F934F935F936F937F937E
:1002B0008F939F93AF93BF93EF93FF93DF93CF936E
:1002C000CDB7DEB7209108013091090140910A01B4
:1002D00050910B0160910C0170910D0180910E0104
:1002E00090910F0100E010E00E94B60780910C0190
:1002F00090910D018630910530F180910C01909123
:100300000D01059790930D0180930C0180910E01D2
:1003100090910F01059790930F0180930E0120910A
:1003200008013091090140910A0150910B0160913F
:100330000C0170910D0180910E0190910F010FEF52
:100340001FEF0E94B607CF91DF91FF91EF91BF9110
:10035000AF919F918F917F916F915F914F913F915D
:100360002F911F910F910F900FBE0F901F90189516
:100370001F920F920FB60F9211240F931F932F937A
:100380003F934F935F936F937F938F939F93AF931D
:10039000BF93EF93FF93DF93CF93CDB7DEB7209159
:1003A00008013091090140910A0150910B016091BF
:1003B0000C0170910D0180910E0190910F0100E0F0
:1003C00010E00E94B60780910E0190910F018B3EC4
:1003D000910530F580910C0190910D010596909357
:1003E0000D0180930C0180910E0190910F010596F3
:1003F00090930F0180930E01209108013091090123
:1004000040910A0150910B0160910C0170910D0116
:1004100080910E0190910F010FEF1FEF0E94B60720
:10042000CF91DF91FF91EF91BF91AF919F918F910C
:100430007F916F915F914F913F912F911F910F91FC
:100440000F900FBE0F901F9018950F931F93DF937F
:10045000CF93CDB7DEB7C351D1400FB6F894DEBF0E
:100460000FBECDBF1EA61DA61CA61BA61AA619A6AA
:1004700018A61FA282E090E09EA38DA382E090E0E8
:100480009CA38BA38DE990E09AA389A382EA90E0D4
:1004900098A38F8F89E890E09E8F8D8F8EE890E0F3
:1004A0009C8F8B8F2B8D3C8D8D8D9E8DA901481B34
:1004B000590BCA019A8F898F2F8D38A189A19AA1D2
:1004C000B901681B790BCB01988F8F8B8CE291E07F
:1004D0009E8B8D8B8CE291E09C8B8B8B1A8A198A78
:1004E00080EF90E0988B8F87CE018F96C95FDE4FAB
:1004F00099838883C750D140E0E1F1E0C75FDE4FC8
:10050000F983E883C950D140F8ECC55FDE4FF8832A
:10051000CB50D140C75FDE4FE881F981C950D1404F
:100520000080C75FDE4F48815981C950D1404F5F7D
:100530005F4FC75FDE4F59834883C950D140C95FC1
:10054000DE4FE881F981C750D1400082C95FDE4F9C
:1005500048815981C750D1404F5F5F4FC95FDE4F1F
:1005600059834883C750D140C55FDE4F5881CB5077
:10057000D1405150C55FDE4F5883CB50D140C55F4D
:10058000DE4F6881CB50D140662321F60E94BB0923
:100590000E949B0881E090E00E94320789A19AA105
:1005A0002F8D38A14D8D5E8D6B8D7C8DFE01E950B8
:1005B000FF4F91838083FE01E950FF4F33832283F5
:1005C000FE01E950FF4F55834483FE01E950FF4F80
:1005D000778366838D899E892B893C8949895A89CD
:1005E0006F857889FE01E150FF4F91838083FE0182
:1005F000E150FF4F33832283FE01E150FF4F5583CB
:100600004483FE01E150FF4F77836683FE01E9508A
:10061000FF4F2081318142815381648175818681C0
:1006200097810FE118EF0E94B607209108013091E1
:10063000090140910A0150910B0160910C017091E8
:100640000D0180910E0190910F010FEF1FEF0E949D
:10065000B607FE01E150FF4F208131814281538175
:1006600064817581868197810FEF1FEF0E94B60725
:10067000A9E6B0E0E9E6F0E0808182608C93A9E62B
:10068000B0E0E9E6F0E0808188608C93ADE3B0E013
:10069000EDE3F0E0808181608C93ADE3B0E0EDE3C9
:1006A000F0E0808182608C93789480E090E0A0E21A
:1006B000B1E48B879C87AD87BE876B857C858D85F4
:1006C0009E8520E030E84BE355E40E94EB0CDC0112
:1006D000CB018F839887A987BA876F8178858985B1
:1006E0009A8520E030E040E85FE30E94450E8823D1
:1006F0002CF481E090E09E838D833FC06F817885EC
:1007000089859A8520E03FEF4FE757E40E94E50D89
:1007100018164CF56B857C858D859E8520E030E034
:1007200040E251E40E94EB0CDC01CB01BC01CD01A5
:100730000E94150BDC01CB019E838D830FC08CE2E0
:1007400091E09C838B838B819C810197F1F79C8343
:100750008B838D819E8101979E838D838D819E8168
:10076000009769F714C06F81788589859A850E9402
:10077000150BDC01CB019E838D838D819E819A8335
:10078000898389819A810197F1F79A838983FE0190
:10079000E950FF4F2081318142815381648175810D
:1007A0008681978100E010E00E94B607FE01E950C3
:1007B000FF4F4281538120910801309109018DA1A1
:1007C0009EA1F901E81BF90BCF014817590708F45E
:1007D0004CC0FE01E950FF4F4081518120910A0138
:1007E00030910B018DA19EA1820F931F8417950755
:1007F000E0F1FE01E950FF4F4481558120910C0149
:1008000030910D01898D9A8DB901681B790BCB014F
:100810004817590750F1FE01E950FF4F46815781B3
:1008200020910E0130910F01898D9A8D820F931FB7
:1008300084179507D0F0C45FDE4F19821882CC5020
:10084000D14089A59AA5009741F481E090E0C45F6A
:10085000DE4F99838883CC50D140C45FDE4FE8815E
:10086000F981CC50D140FAA7E9A7FE01E950FF4F2A
:100870004481558120910E0130910F018BA19CA1E3
:10088000820F931F8417950708F44EC0FE01E950AC
:10089000FF4F4681578120910C0130910D018BA1B2
:1008A0009CA1B901681B790BCB0148175907E0F1EE
:1008B000FE01E950FF4F4281538120910A0130919E
:1008C0000B018F89988D820F931F8417950760F114
:1008D000FE01E950FF4F4081518120910801309184
:1008E00009018F89988DF901E81BF90BCF01481791
:1008F0005907D0F0C25FDE4F19821882CE50D14026
:100900008FA198A5009741F441E050E0C25FDE4F0F
:1009100059834883CE50D140C25FDE4F68817981D0
:10092000CE50D14078A76FA3FE01E950FF4F42811E
:10093000538120910801309109018DA19EA1F901F7
:10094000E81BF90BCF0101964817590708F4B3C00B
:10095000FE01E950FF4F4081518120910A01309101
:100960000B018DA19EA1820F931F019784179507FC
:1009700008F4A1C0FE01E950FF4F44815581209148
:100980000C0130910D01898D9A8DB901681B790B8D
:10099000CB014817590708F48EC0FE01E950FF4FFC
:1009A0004681578120910E0130910F01898D9A8DDA
:1009B000820F931F8417950708F47DC0FE01E9504C
:1009C000FF4F4281538120910801309109018DA18F
:1009D0009EA1F901E81BF90BCF01019648175907B1
:1009E00008F469C0FE01E950FF4F40815181209118
:1009F0000A0130910B018DA19EA1820F931F0197D7
:100A00008417950708F457C0FE01E950FF4F448151
:100A1000558120910C0130910D01898D9A8DB9017C
:100A2000681B790BCB014817590708F444C0FE0135
:100A3000E950FF4F4681578120910E0130910F01FF
:100A4000898D9A8D820F931F84179507A0F1C05F3F
:100A5000DE4F19821882C051D1408FA198A500970E
:100A600041F481E090E0C05FDE4F99838883C051FC
:100A7000D140C05FDE4FE881F981C051D140F8A775
:100A8000EFA3CE5EDE4F19821882C251D14089A5F4
:100A90009AA5009741F441E050E0CE5EDE4F5983C5
:100AA0004883C251D140CE5EDE4F68817981C25108
:100AB000D1407AA769A72CE231E08DA19EA1F9016E
:100AC000E81BF90BCF019C01FE01E950FF4F828129
:100AD00093818217930720F081E090E09AA789A77D
:100AE0008DA19EA1FE01E950FF4F20813181821727
:100AF000930780F01AA619A60E949506CD5EDE4FD8
:100B00000FB6F894DEBF0FBECDBFCF91DF911F911E
:100B10000F91089520EF30E08BA19CA1A901481B03
:100B2000590BCA019C01FE01E950FF4F8681978154
:100B30008217930720F081E090E098A78FA38BA104
:100B40009CA1FE01E950FF4F248135818217930754
:100B500010F018A61FA289A59AA5009749F08DA5A7
:100B60009EA52DA13EA1821B930B9EA78DA708C019
:100B70008DA59EA52DA13EA1820F931F9EA78DA797
:100B80008FA198A5009749F08BA59CA52BA13CA10E
:100B9000821B930B9CA78BA708C08BA59CA52BA1A0
:100BA0003CA1820F931F9CA78BA72F8D38A18DA5E9
:100BB0009EA5820F931FFE01E950FF4F938382830E
:100BC00029A13AA18DA59EA5820F931FFE01E95090
:100BD000FF4F918380832B8D3C8D8BA59CA5820F2D
:100BE000931FFE01E950FF4F978386832D8D3E8D25
:100BF0008BA59CA5820F931FFE01E950FF4F9583A3
:100C00008483FE01E950FF4F20813181428153816D
:100C100064817581868197810FE118EF0E94B60784
:100C200044CDDF93CF93CDB7DEB76D970FB6F89471
:100C3000DEBF0FBECDBF1A821982CE0103969A8FF6
:100C4000898FEDEDF1E0FC8FEB8FF4E1FD8FEB8D03
:100C5000FC8D00808B8D9C8D01969C8F8B8FE98DF8
:100C6000FA8D0082898D9A8D01969A8F898F9D8D3C
:100C700091509D8FED8DEE2351F784E190E09A83A2
:100C80008983F89480E090E00E9432078FE198EF2A
:100C90009093FE018093FD010E949B088091F101D9
:100CA0009091F20101969C013695279589819A8150
:100CB000880F991F909581959F4F820F931F909356
:100CC000F8018093F7018091F3019091F4019695DA
:100CD00087959093FA018093F901CE0103960E94C3
:100CE000A8098091F1019091F2010196969587955E
:100CF00002979093F8018093F7018091F30190910E
:100D0000F401969587950A969093FA018093F901DC
:100D100088ED91E00E94A8096D960FB6F894DEBFA9
:100D20000FBECDBFCF91DF910895DF93CF93CDB7A5
:100D3000DEB7A1970FB6F894DEBF0FBECDBF1A8203
:100D400019829E012D5F3F4F3C8F2B8F8DED91E0DF
:100D50009E8F8D8F94E19F8FED8DFE8D00802D8D68
:100D60003E8D2F5F3F4F3E8F2D8FEB8DFC8D008290
:100D70002B8D3C8D2F5F3F4F3C8F2B8F3F8D315004
:100D80003F8F8F8D882341F784E190E09A83898398
:100D9000F89480E090E00E9432078FE198EF909302
:100DA000FE018093FD010E949B088091F1019091CA
:100DB000F2010196FC01F695E795F88FEF8B2981FA
:100DC0003A81C901880F991F880F991F820F931FBD
:100DD00099A388A328A139A133232CF488A199A130
:100DE000019699A388A388A199A195958795EF89E4
:100DF000F88DE81BF90BCF019093F8018093F70170
:100E00008091F3019091F401969587959093FA0162
:100E10008093F901CE0103960E94A8098091F10107
:100E20009091F20101969695879503979093F8011A
:100E30008093F7018091F3019091F4019695879545
:100E40000A969093FA018093F90188ED91E00E944F
:100E5000A809A1960FB6F894DEBF0FBECDBFCF9103
:100E6000DF9108959C019093F6018093F501149809
:100E700086E388B91398139A149A2115310571F4F1
:100E800080EF90E09093F2018093F10180E491E093
:100E90009093F4018093F30188E432C0213031054E
:100EA00071F480E491E09093F2018093F10180EF7E
:100EB00090E09093F4018093F30188EE21C02230FA
:100EC000310571F480EF90E09093F2018093F1018D
:100ED00080E491E09093F4018093F30188E810C0DE
:100EE0002330310581F480E491E09093F201809306
:100EF000F10180EF90E09093F4018093F30188E298
:100F000088B91398139A14988AE288B91398139A97
:100F1000149A18B81398139A18B81398139A8091C2
:100F2000F1019091F201019798B901961398139AE3
:100F3000815088B91398139A14988BE288B9139842
:100F4000139A149A18B81398139A18B81398139AF6
:100F50008091F3019091F401019798B9019613984B
:100F6000139A815088B91398139A0895EF92FF92BB
:100F70000F931F93DF93CF93CDB7DEB728970FB6AC
:100F8000F894DEBF0FBECDBFF22F2983E32F3A8343
:100F90004B835C83362F6D83272F7E838F839887C7
:100FA0007801AB81BC81062F172F6F81788514984B
:100FB0008AE288B91398139A149AE8B91398139A85
:100FC000F8B91398139AB8B91398139AA8B9139843
:100FD000139A14988BE288B91398139A149A28B923
:100FE0001398139A38B91398139A78B91398139AD7
:100FF00068B91398139A14988CE288B91398139AC5
:10100000149A2F2F3E2FC901AC010DC0F8B81398C8
:10101000139AE8B81398139A2F5F3F4F621773071C
:10102000A8F74F5F5F4FA417B50710F09801F6CFF0
:1010300028960FB6F894DEBF0FBECDBFCF91DF91DB
:101040001F910F91FF90EF900895EF92FF920F93F1
:101050001F93DF93CF93CDB7DEB728970FB6F894E1
:10106000DEBF0FBECDBFF22F2983E32F3A834B8320
:101070005C83362F6D83272F7E838F839887D801DB
:101080000B811C81E62EF72E6F81788514988AE2F9
:1010900088B91398139A149AE8B91398139AF8B95F
:1010A0001398139A18B91398139A08B91398139AA6
:1010B00014988BE288B91398139A149A28B9139844
:1010C000139A38B91398139A78B91398139A68B980
:1010D0001398139A14988CE288B91398139A149A57
:1010E0002F2F3E2FC901AC0114C011968C9111977E
:1010F00088B91398139A12968C91129788B91496FE
:101100001398139A2F5F3F4F6217730770F74F5F63
:101110005F4F0417150710F09701F6CF28960FB60A
:10112000F894DEBF0FBECDBFCF91DF911F910F911D
:10113000FF90EF9008950F931F93DF93CF93CDB758
:10114000DEB728970FB6F894DEBF0FBECDBF109262
:10115000F8011092F7011092FA011092F901209112
:10116000F1013091F201215030408091F3019091D2
:10117000F40101971A821982422F3C832B831E822D
:101180001D8298878F830091FD011091FE012981B6
:101190003A815C816D817E8198850E94B607289690
:1011A0000FB6F894DEBF0FBECDBFCF91DF911F9178
:1011B0000F9108956F927F928F929F92AF92BF92FC
:1011C000CF92DF92EF92FF920F931F93CF93DF9313
:1011D000982F0091F7011091F80124E0E22EF12CF4
:1011E000E00EF11E6090F9017090FA0180528F3587
:1011F00008F09FC0E301279685E0989F9001112495
:101200002452304014988BE288B91398139A149A98
:1012100078B81398139A68B81398139AD8B9139892
:10122000139AC8B91398139AC090FB01D090FC018F
:10123000A090FD01B090FE01A8019AE2892E8CE2F7
:10124000982E36C0149888B81398139A149A58B9DF
:101250001398139A48B91398139A58B91398139A74
:1012600048B91398139A149898B81398139A149A23
:10127000F901B491B30191E014C0A92FAB2311F48B
:101280008B2D01C08D2D88B91398139AAA2311F4C0
:101290008A2D01C08C2D88B91398139A6F5F7F4FE8
:1012A000990FC617D70748F72F5F3F4F4F5F5F4F24
:1012B000E416F50638F614988AE288B91398139A5A
:1012C000149A58B91398139A48B91398139A58B99D
:1012D0001398139A48B91398139A14988CE288B902
:1012E0001398139A149AC30107C0B8B81398139AA5
:1012F000A8B81398139A0196C817D907B0F79801A0
:101300002A5F3F4F3093F8012093F7018091F1015C
:101310009091F2012817390760F01092F8011092AD
:10132000F70188E090E0680E791E7092FA016092F1
:10133000F901DF91CF911F910F91FF90EF90DF9016
:10134000CF90BF90AF909F908F907F906F900895B7
:101350001F93CF93DF93EC0110E003C00E94DA08E3
:101360001F5FFE01E10FF11D80818823B9F7DF9136
:10137000CF911F91089585B7806885BF85B7806834
:1013800085BF8FE781B98FEF87B90E94C80908959B
:10139000129888EE93E02CE231E0F9013197F1F7F1
:1013A0000197D9F7129A88EE93E02CE231E0F90127
:1013B0003197F1F70197D9F7149A139A159A109863
:1013C00011981698149888E288B91398139A149A69
:1013D000149881E188B91398139A149A88E592E0D9
:1013E0002CE231E0F9013197F1F70197D9F7149820
:1013F0008BEC88B91398139A149A81E088B91398E2
:10140000139A149880EC88B91398139A149A86E268
:1014100088B91398139A88E088B91398139A149886
:1014200081EC88B91398139A149A80E188B91398BB
:10143000139A149885EC88B91398139A149A85E333
:1014400088B91398139A8EE388B91398139A14984D
:1014500086E388B91398139A149A88E488B9139884
:10146000139A149880EB88B91398139A149A8AE403
:1014700088B91398139A149881EB88B91398139A22
:10148000149A18B81398139A8BE188B91398139A81
:10149000149886EB88B91398139A149AEDE2F2E047
:1014A000819188B91398139A42E0E133F407C1F7A8
:1014B000149887EC88B91398139A149A85EB88B915
:1014C0001398139A149886EF88B91398139A149A5C
:1014D000E9E2F2E0819188B91398139A82E0EC3244
:1014E000F807C1F7149882EF88B91398139A149AE1
:1014F00018B81398139A149886E288B91398139A17
:10150000149A81E088B91398139A14988AE388B9D9
:101510001398139A149A85E588B91398139A149816
:1015200080EE88B91398139A149AE9E1F2E0819158
:1015300088B91398139A42E0E832F407C1F7149877
:1015400081EE88B91398139A149AE9E0F2E0819138
:1015500088B91398139A82E0E831F807C1F7149814
:101560008AE288B91398139A149AE4E0F2E0819120
:1015700088B91398139A42E0E830F407C1F7149839
:101580008BE288B91398139A149AEFEFF1E08191E6
:1015900088B91398139A82E0E330F807C1F71498DA
:1015A00084E388B91398139A149A149884EB88B931
:1015B0001398139A149A18B81398139A149887EBDF
:1015C00088B91398139A149A87E088B91398139AD4
:1015D00014988CE288B91398139A149A20E030E09A
:1015E00010C018B81398139A18B81398139A019644
:1015F00041E080349407A9F72F5F3F4F203F31052A
:1016000019F080E090E0EDCF149889E288B9139842
:10161000139A149A84EF91E02CE231E0F9013197AA
:10162000F1F70197D9F7119A0895EF92FF920F936E
:101630001F937B018C0120E030E040E05FE40E94DA
:10164000150E88238CF0C801B70120E030E040E09F
:101650005FE40E948D0C0E94750E9B01AC0120502E
:1016600030404040504806C0C801B7010E94750E86
:101670009B01AC01B901CA011F910F91FF90EF903E
:101680000895A0E0B0E0E7E4FBE00C946F10DC010B
:101690002B01FA019C91923008F439C1EB01888149
:1016A000823008F433C1943069F4843009F02FC1DA
:1016B00011969C9111978981981709F428C1A2E38A
:1016C000B2E025C1843009F421C18230A9F49230FE
:1016D00009F01DC19A01AD0188E0EA010990AE014F
:1016E000E90109929E018150C1F7E20189811196B9
:1016F0009C918923818308C1923009F407C1129615
:101700002D903C901397EB018A819B811496AD90AC
:10171000BD90CD90DC901797EC80FD800E811F81ED
:101720009101281B390BB90137FF04C066277727C1
:10173000621B730B603271050CF061C01216130648
:101740006CF537014801062E04C09694879477946F
:1017500067940A94D2F721E030E040E050E004C002
:10176000220F331F441F551F6A95D2F72150304076
:10177000404050402E213F21402351232115310567
:101780004105510521F021E030E040E050E07901D1
:101790008A01E628F728082919293CC0232BD1F112
:1017A000260E371E35014601062E04C096948794F6
:1017B000779467940A94D2F721E030E040E050E05B
:1017C00004C0220F331F441F551F6A95D2F72150C2
:1017D0003040404050402A213B214C215D212115C1
:1017E00031054105510521F021E030E040E050E0B5
:1017F00059016A01A628B728C828D9280BC0821524
:1018000093052CF01C01AA24BB24650103C0EE241F
:10181000FF24870111969C91D20111968C91981703
:1018200009F445C0992339F0A80197012A193B0909
:101830004C095D0906C0A60195012E193F09400B10
:10184000510B57FD08C011823382228224833583D5
:10185000468357831DC081E081833382228288279B
:101860009927DC01821B930BA40BB50B8483958312
:10187000A683B7830DC0220F331F441F551F248337
:101880003583468357838281938101979383828333
:101890002481358146815781DA01C9010197A10967
:1018A000B1098F5F9F4FAF4FBF4328F30BC09183A8
:1018B00033822282EA0CFB1C0C1D1D1DE482F58282
:1018C0000683178383E08083248135814681578195
:1018D00057FF1AC0C901AA2797FDA095BA2F81709A
:1018E0009070A070B0705695479537952795822BCC
:1018F000932BA42BB52B84839583A683B7838281F6
:101900009381019693838283DF0101C0D201CD01CF
:10191000CDB7DEB7E2E10C948B10A0E2B0E0E3E9D2
:10192000FCE00C947B1069837A838B839C832D83EA
:101930003E834F835887E9E0EE2EF12CEC0EFD1E1E
:10194000CE010196B7010E949E0F8E010F5E1F4FC0
:10195000CE010596B8010E949E0F8A8991E08927E1
:101960008A8BC701B801AE01475E5F4F0E94410BF1
:101970000E94C90EA096E6E00C949710A0E2B0E099
:10198000E4ECFCE00C947B1069837A838B839C836A
:101990002D833E834F835887F9E0EF2EF12CEC0E18
:1019A000FD1ECE010196B7010E949E0F8E010F5EB3
:1019B0001F4FCE010596B8010E949E0FC701B801C6
:1019C000AE01475E5F4F0E94410B0E94C90EA09678
:1019D000E6E00C949710A0E2B0E0E1EFFCE00C949C
:1019E0006F1069837A838B839C832D833E834F831F
:1019F0005887CE010196BE01675F7F4F0E949E0F00
:101A0000CE010596BE016F5E7F4F0E949E0F9985A5
:101A1000923088F089898230C8F0943019F482308D
:101A200051F404C0843029F4923081F482E392E0CE
:101A3000C6C0923049F420E09A858A89981321E043
:101A40002A87CE010996BBC0823049F420E09A85EE
:101A50008A89981321E02A8BCE014196B0C02D844B
:101A60003E844F8458886D887E888F88988CEE24B9
:101A7000FF248701AA24BB24650140E050E060E018
:101A800070E0E0E0F0E0C10181709070892BE9F036
:101A9000E60CF71C081D191D9A01AB012A0D3B1D10
:101AA0004C1D5D1D80E090E0A0E0B0E0E614F7047E
:101AB0000805190520F481E090E0A0E0B0E0BA014B
:101AC000A901480F591F6A1F7B1FAA0CBB1CCC1C05
:101AD000DD1C97FE08C081E090E0A0E0B0E0A82AFD
:101AE000B92ACA2ADB2A3196E032F10549F0660CA0
:101AF000771C881C991C5694479437942794C3CF1D
:101B0000FA85EA892B893C898B859C85280F391FAA
:101B10002E5F3F4F17C0CA0181709070892B61F012
:101B200016950795F794E79480E090E0A0E0B0E880
:101B3000E82AF92A0A2B1B2B769567955795479526
:101B40002F5F3F4F77FDE7CF0CC0440F551F661F37
:101B5000771F17FD4160EE0CFF1C001F111F215065
:101B60003040403090E0590790E0690790E47907F1
:101B700060F32B8F3C8FDB01CA018F779070A070D0
:101B8000B07080349105A105B10561F447FD0AC02C
:101B9000E114F1040105110529F0405C5F4F6F4F1E
:101BA0007F4F40781A8EFE1711F081E08A8F4D8F9B
:101BB0005E8F6F8F78A383E0898FCE0149960E9454
:101BC000C90EA096E2E10C948B10A8E1B0E0EBEE18
:101BD000FDE00C947B1069837A838B839C832D8337
:101BE0003E834F83588789E0E82EF12CEC0EFD1ED2
:101BF000CE010196B7010E949E0F8E010F5E1F4F0E
:101C0000CE010596B8010E949E0F8985823040F072
:101C10008989823028F0C701B8010E94161001C0DE
:101C20008FEF6896E6E00C949710A8E1B0E0EBE146
:101C3000FEE00C947B1069837A838B839C832D83D5
:101C40003E834F83588789E0E82EF12CEC0EFD1E71
:101C5000CE010196B7010E949E0F8E010F5E1F4FAD
:101C6000CE010596B8010E949E0F8985823040F012
:101C70008989823028F0C701B8010E94161001C07E
:101C80008FEF6896E6E00C949710A8E1B0E0EBE4E3
:101C9000FEE00C947B1069837A838B839C832D8375
:101CA0003E834F83588789E0E82EF12CEC0EFD1E11
:101CB000CE010196B7010E949E0F8E010F5E1F4F4D
:101CC000CE010596B8010E949E0F8985823040F0B2
:101CD0008989823028F0C701B8010E94161001C01E
:101CE00081E06896E6E00C949710ACE0B0E0EBE79A
:101CF000FEE00C947F1069837A838B839C83CE01F2
:101D00000196BE016B5F7F4F0E949E0F8D818230D6
:101D100061F1823050F1843021F48E81882351F1B9
:101D20002EC02F81388537FD20C06E812F313105BF
:101D30001CF06623F9F023C08EE190E0821B930B28
:101D400029853A854B855C8504C05695479537951E
:101D500027958A95D2F76623B1F050954095309536
:101D600021953F4F4F4F5F4F0EC020E030E040E0E5
:101D700050E009C02FEF3FEF4FEF5FE704C020E0D6
:101D800030E040E050E8B901CA012C96E2E00C9442
:101D90009B10DF92EF92FF920F931F93FC01E48060
:101DA000F58006811781D1808081823048F480E0FF
:101DB00090E0A0E1B0E0E82AF92A0A2B1B2BA5C08D
:101DC000843009F49FC0823021F4EE24FF2487017F
:101DD00005C0E114F1040105110519F4E0E0F0E09B
:101DE00096C0628173819FEF623879070CF05BC007
:101DF00022E83FEF261B370B2A3131052CF020E07B
:101E000030E040E050E02AC0B801A701022E04C033
:101E100076956795579547950A94D2F781E090E0BB
:101E2000A0E0B0E004C0880F991FAA1FBB1F2A952D
:101E3000D2F70197A109B1098E219F21A023B123D7
:101E40000097A105B10521F081E090E0A0E0B0E0AD
:101E50009A01AB01282B392B4A2B5B2BDA01C901E4
:101E60008F779070A070B07080349105A105B10596
:101E700039F427FF09C0205C3F4F4F4F5F4F04C02C
:101E8000215C3F4F4F4F5F4FE0E0F0E02030A0E09B
:101E90003A07A0E04A07A0E45A0710F0E1E0F0E0BA
:101EA00079018A0127C06038710564F5FB01E158AA
:101EB000FF4FD801C7018F779070A070B070803449
:101EC0009105A105B10539F4E7FE0DC080E490E06D
:101ED000A0E0B0E004C08FE390E0A0E0B0E0E80E46
:101EE000F91E0A1F1B1F17FF05C016950795F794CB
:101EF000E794319687E016950795F794E7948A95CD
:101F0000D1F705C0EE24FF248701EFEFF0E06E2F3C
:101F1000679566276795902F9F77D794DD24D79490
:101F20008E2F8695492F462B582F5D29B701CA0160
:101F30001F910F91FF90EF90DF900895FC01DB015E
:101F4000408151812281622F6F7770E0221F22270A
:101F5000221F9381892F880F822B282F30E0991F11
:101F60009927991F11969C93119721153105A9F571
:101F7000411551056105710511F482E037C082E811
:101F80009FEF13969C938E9312979A01AB0167E093
:101F9000220F331F441F551F6A95D1F783E08C939E
:101FA0000DC0220F331F441F551F12968D919C9117
:101FB0001397019713969C938E931297203080E08D
:101FC000380780E0480780E4580758F314962D93AB
:101FD0003D934D935C93179708952F3F310579F406
:101FE000411551056105710519F484E08C9308953C
:101FF00064FF03C081E08C9312C01C9210C02F5765
:10200000304013963C932E93129783E08C9387E095
:10201000440F551F661F771F8A95D1F77064149679
:102020004D935D936D937C93179708951F93DC01F7
:10203000FB019C91923008F447C08081823008F403
:1020400043C0943051F411961C91843099F58181EC
:10205000682F70E0611B71093FC0843021F092301D
:1020600031F48230B9F18181882389F12DC0119634
:102070001C9111978230F1F081811817D9F41296D2
:102080002D913C911397828193818217930794F04D
:1020900028173907BCF014968D919D910D90BC9135
:1020A000A02D2481358146815781281739074A0799
:1020B0005B0718F4112341F00AC082179307A407A5
:1020C000B50740F4112319F061E070E005C06FEF2F
:1020D0007FEF02C060E070E0CB011F9108952F9266
:1020E0003F924F925F926F927F928F929F92AF92A8
:1020F000BF92CF92DF92EF92FF920F931F93CF93F5
:10210000DF93CDB7DEB7CA1BDB0B0FB6F894DEBF8B
:102110000FBECDBF09942A88398848885F846E84B1
:102120007D848C849B84AA84B984C884DF80EE80FB
:10213000FD800C811B81AA81B981CE0FD11D0FB604
:10214000F894DEBF0FBECDBFED010895F894FFCF28
:102150000200050032006400020005003200640045
:102160001FF8FFFF1FF8FFFF1FF8FFFF1FF8FFFF1B
:102170001FF8FFFF1FF8FFFF1FF8FFFF1FF8FFFF0B
:102180001FF8FFFF1FF8FFFF1FF8FFFF1FF8FFFFFB
:102190001FF8FFFF1FF8FFFF1FF8FFFF1FF8FFFFEB
:1021A0001FF8FFFF1FF8FFFF1FF8FFFF1FF8FFFFDB
:1021B0001FF8FFFF1FF8FFFF1FF8FFFF1FF8FFFFCB
:1021C0001FF8FFFF1FF8FFFF1FF8FFFF1FF8FFFFBB
:1021D0001FF8FFFF1FF8FFFF1FF8FFFF1FF8FFFFAB
:1021E0001FF8FFFF1FF8FFFF1FF8FFFF1FF8FFFF9B
:1021F0001FF8FFFF1FF8FFFF1FF8FFFF1FF8FFFF8B
:102200001FF8FFFF1FF8FFFF1FF8FFFF1FF8FFFF7A
:102210001FF8FFFF1FF8FFFF1FF8FFFF1FF8FFFF6A
:102220001FF8FFFF1FF8FFFF7965657400796F20C5
:10223000626974636820796F75206661696C656492
:1022400000F0004001030000000000FFFF0000005C
:1022500000013F00000000EF000025270510093AAB
:10226000784D05180D383A1F001F1A180A0F064539
:1022700087320A070207050000010000000A8227D2
:0A2280000000000000000000000054
:00000001FF
