:100000000C942C010C9441010C9441010C9441017D
:100010000C9441010C9441010C9441010C94410158
:100020000C9441010C9441010C9441010C94410148
:100030000C9441010C9441010C9441010C94410138
:100040000C9441010C9441010C9441010C94410128
:100050000C9441010C9441010C9441010C94410118
:100060000C9441010C9441010C9441010C94410108
:100070000C9441010C9441010C94410100000000DA
:100080000000005F00000003000300143E143E1453
:10009000242A7F2A124333086661364955225000CC
:1000A00005030000001C2241000041221C0014082E
:1000B0003E081408083E08080050300000080808F0
:1000C0000808006060000020100804023E51494505
:1000D0003E0004027F0042615149462241494936AF
:1000E0001814127F1027454545393E4949493201C8
:1000F000017109073649494936264949493E0036C2
:100100003600000056360000081422410014141472
:100110001414004122140802015109063E415955A8
:100120005E7E0909097E7F494949363E41414122A7
:100130007F4141413E7F494949417F090909013ECB
:100140004141493A7F0808087F00417F4100304023
:1001500040403F7F081422417F404040407F020CD6
:10016000027F7F0204087F3E4141413E7F09090929
:10017000061E2121215E7F09090976264949493257
:1001800001017F01013F4040403F1F2040201F7F71
:100190002010207F41221C2241070870080761516E
:1001A000494543007F41000002040810200000413F
:1001B0007F0004020102044040404040000102046C
:1001C0000020545454787F444444383844444444D0
:1001D000384444447F385454541804047E050508B8
:1001E0005454543C7F0804047800447D400020406F
:1001F000443D007F1028440000417F40007C04788B
:1002000004787C0804047838444444387C1414147A
:1002100008081414147C007C080404485454542026
:1002200004043F44443C4040207C1C2040201C3CB3
:100230004030403C44281028440C5050503C44640A
:10024000544C44000836414100007F0000414136D3
:10025000080002010204020011241FBECFEFD0E10A
:10026000DEBFCDBF11E0A0E0B1E0E4E7FAE002C0FC
:1002700005900D92AE34B107D9F70E9443010C945A
:1002800038050C940000DF93CF9300D0CDB7DEB7D4
:100290000E94DE030E94BE0280E091E00E94CB0338
:1002A0000F900F90CF91DF9108959C0190931101D1
:1002B00080931001149886E388B91398139A149ABE
:1002C0002115310571F480EF90E090930D0180933A
:1002D0000C0180E491E090930F0180930E0188E47B
:1002E00032C02130310571F480E491E090930D012A
:1002F00080930C0180EF90E090930F0180930E01AA
:1003000088EE21C02230310571F480EF90E09093A7
:100310000D0180930C0180E491E090930F01809394
:100320000E0188E810C02330310581F480E491E0AB
:1003300090930D0180930C0180EF90E090930F015A
:1003400080930E0188E288B91398139A14988AE270
:1003500088B91398139A149A18B81398139A18B85E
:100360001398139A80910C0190910D01019798B9FF
:1003700001961398139A815088B91398139A149878
:100380008BE288B91398139A149A18B81398139A91
:1003900018B81398139A80910E0190910F0101974C
:1003A00098B901961398139A815088B91398139AA3
:1003B0000895EF92FF920F931F93DF93CF93CDB7E2
:1003C000DEB728970FB6F894DEBF0FBECDBFF22F71
:1003D0002983E32F3A834B835C83362F6D83272F4A
:1003E0007E838F8398877801AB81BC81062F172F7E
:1003F0006F81788514988AE288B91398139A149AB1
:10040000E8B91398139AF8B91398139AB8B91398CE
:10041000139AA8B91398139A14988BE288B9139871
:10042000139A149A28B91398139A38B91398139AEF
:1004300078B91398139A68B91398139A14988CE2A0
:1004400088B91398139A149A2F2F3E2FC901AC0123
:100450000DC0F8B81398139AE8B81398139A2F5F41
:100460003F4F62177307A8F74F5F5F4FA417B50799
:1004700010F09801F6CF28960FB6F894DEBF0FBEA5
:10048000CDBFCF91DF911F910F91FF90EF90089515
:10049000EF92FF920F931F93DF93CF93CDB7DEB709
:1004A00028970FB6F894DEBF0FBECDBFF22F298379
:1004B000E32F3A834B835C83362F6D83272F7E8314
:1004C0008F839887D8010B811C81E62EF72E6F81D0
:1004D000788514988AE288B91398139A149AE8B91F
:1004E0001398139AF8B91398139A18B91398139A82
:1004F00008B91398139A14988BE288B91398139A31
:10050000149A28B91398139A38B91398139A78B98A
:100510001398139A68B91398139A14988CE288B9AF
:100520001398139A149A2F2F3E2FC901AC0114C0AF
:1005300011968C91119788B91398139A12968C91F1
:10054000129788B914961398139A2F5F3F4F62172A
:10055000730770F74F5F5F4F0417150710F097018F
:10056000F6CF28960FB6F894DEBF0FBECDBFCF9161
:10057000DF911F910F91FF90EF9008950F931F93BC
:10058000DF93CF93CDB7DEB728970FB6F894DEBFD1
:100590000FBECDBF109213011092120110921501DF
:1005A0001092140120910C0130910D012150304026
:1005B00080910E0190910F0101971A821982422FAA
:1005C0003C832B831E821D8298878F8300911801A4
:1005D0001091190129813A815C816D817E81988514
:1005E0000E94D90128960FB6F894DEBF0FBECDBF8A
:1005F000CF91DF911F910F9108956F927F928F920B
:100600009F92AF92BF92CF92DF92EF92FF920F93A1
:100610001F93CF93DF93982F009112011091130134
:1006200024E0E22EF12CE00EF11E60901401709097
:10063000150180528F3508F09FC0E301279685E0B1
:10064000989F900111242452304014988BE288B96D
:100650001398139A149A78B81398139A68B8139841
:10066000139AD8B91398139AC8B91398139AC090CB
:100670001601D0901701A0901801B0901901A8019F
:100680009AE2892E8CE2982E36C0149888B8139876
:10069000139A149A58B91398139A48B91398139A3D
:1006A00058B91398139A48B91398139A149898B88C
:1006B0001398139A149AF901B491B30191E014C0FC
:1006C000A92FAB2311F48B2D01C08D2D88B9139860
:1006D000139AAA2311F48A2D01C08C2D88B913987E
:1006E000139A6F5F7F4F990FC617D70748F72F5F91
:1006F0003F4F4F5F5F4FE416F50638F614988AE2D5
:1007000088B91398139A149A58B91398139A48B938
:100710001398139A58B91398139A48B91398139ABF
:1007200014988CE288B91398139A149AC30107C0DD
:10073000B8B81398139AA8B81398139A0196C817C3
:10074000D907B0F798012A5F3F4F309313012093E8
:10075000120180910C0190910D012817390760F06A
:10076000109213011092120188E090E0680E791E39
:100770007092150160921401DF91CF911F910F913A
:10078000FF90EF90DF90CF90BF90AF909F908F90B1
:100790007F906F9008951F93CF93DF93EC0110E04B
:1007A00003C00E94FD021F5FFE01E10FF11D808169
:1007B0008823B9F7DF91CF911F91089585B780689D
:1007C00085BF85B7806885BF8FE781B98FEF87B90F
:1007D0000E94EB030895129888EE93E02CE231E03A
:1007E000F9013197F1F70197D9F7129A88EE93E062
:1007F0002CE231E0F9013197F1F70197D9F7149A1A
:10080000139A159A10981198169A149888E288B934
:100810001398139A149A149881E188B91398139A2B
:10082000149A88E592E02CE231E0F9013197F1F772
:100830000197D9F714988BEC88B91398139A149AE6
:1008400081E088B91398139A149880EC88B91398AA
:10085000139A149A86E288B91398139A88E088B993
:100860001398139A149881EC88B91398139A149AD0
:1008700080E188B91398139A149885EC88B9139875
:10088000139A149A85E388B91398139A8EE388B95A
:100890001398139A149886E388B91398139A149AA4
:1008A00088E488B91398139A149880EB88B9139840
:1008B000139A149A8AE488B91398139A149881EBBE
:1008C00088B91398139A149A18B81398139A8BE14D
:1008D00088B91398139A149886EB88B91398139AC9
:1008E000149AE8E4F1E0819188B91398139A41E0F1
:1008F000EC34F407C1F7149887EC88B91398139A6D
:10090000149A85EB88B91398139A149886EF88B9CE
:100910001398139A149AE4E4F1E0819188B913983A
:10092000139A81E0E734F807C1F7149882EF88B989
:100930001398139A149A18B81398139A149886E275
:1009400088B91398139A149A81E088B91398139A66
:1009500014988AE388B91398139A149A85E588B98C
:100960001398139A149880EE88B91398139A149ACE
:10097000E4E3F1E0819188B91398139A41E0E334FC
:10098000F407C1F7149881EE88B91398139A149A52
:10099000E4E2F1E0819188B91398139A81E0E3339E
:1009A000F807C1F714988AE288B91398139A149A31
:1009B000EFE1F1E0819188B91398139A41E0E332B5
:1009C000F407C1F714988BE288B91398139A149A14
:1009D000EAE1F1E0819188B91398139A81E0EE3150
:1009E000F807C1F7149884E388B91398139A149AF6
:1009F000149884EB88B91398139A149A18B813981A
:100A0000139A149887EB88B91398139A149A87E06D
:100A100088B91398139A14988CE288B91398139A8A
:100A2000149A20E030E010C018B81398139A18B840
:100A30001398139A019641E080349407A9F72F5F29
:100A40003F4F203F310519F080E090E0EDCF149842
:100A500089E288B91398139A149A84EF91E02CE2F2
:100A600031E0F9013197F1F70197D9F7119A08951B
:040A7000F894FFCF28
:100A740048656C6C6F20776F726C6400F000400105
:100A8400000000000000FFFF00000000013F000024
:100A94000000EF000025270510093A784D05180DD0
:100AA400383A1F001F1A180A0F064587320A070230
:0E0AB40007050000010000000A822700000074
:00000001FF
